{
  "address": "0x8376cA7477086896B300F72d10e448a6763B17d4",
  "abi": [
    {
      "inputs": [
        {
          "internalType": "contract VRFv2Consumer",
          "name": "_consumer",
          "type": "address"
        },
        {
          "internalType": "address",
          "name": "_wethAddress",
          "type": "address"
        },
        {
          "internalType": "address",
          "name": "_uniSwapRouter",
          "type": "address"
        }
      ],
      "stateMutability": "nonpayable",
      "type": "constructor"
    },
    {
      "anonymous": false,
      "inputs": [
        {
          "indexed": true,
          "internalType": "address",
          "name": "previousOwner",
          "type": "address"
        },
        {
          "indexed": true,
          "internalType": "address",
          "name": "newOwner",
          "type": "address"
        }
      ],
      "name": "OwnershipTransferred",
      "type": "event"
    },
    {
      "inputs": [],
      "name": "DECIMALS",
      "outputs": [
        {
          "internalType": "uint256",
          "name": "",
          "type": "uint256"
        }
      ],
      "stateMutability": "view",
      "type": "function"
    },
    {
      "inputs": [],
      "name": "RANDOM_MAX_RANGE",
      "outputs": [
        {
          "internalType": "uint256",
          "name": "",
          "type": "uint256"
        }
      ],
      "stateMutability": "view",
      "type": "function"
    },
    {
      "inputs": [],
      "name": "_router",
      "outputs": [
        {
          "internalType": "contract IUniswapV2Router02",
          "name": "",
          "type": "address"
        }
      ],
      "stateMutability": "view",
      "type": "function"
    },
    {
      "inputs": [],
      "name": "_weth",
      "outputs": [
        {
          "internalType": "address",
          "name": "",
          "type": "address"
        }
      ],
      "stateMutability": "view",
      "type": "function"
    },
    {
      "inputs": [
        {
          "internalType": "address",
          "name": "tokenA",
          "type": "address"
        },
        {
          "internalType": "address",
          "name": "tokenB",
          "type": "address"
        },
        {
          "internalType": "uint256",
          "name": "amountADesired",
          "type": "uint256"
        },
        {
          "internalType": "uint256",
          "name": "amountBDesired",
          "type": "uint256"
        },
        {
          "internalType": "uint256",
          "name": "amountAMin",
          "type": "uint256"
        },
        {
          "internalType": "uint256",
          "name": "amountBMin",
          "type": "uint256"
        },
        {
          "internalType": "address",
          "name": "to",
          "type": "address"
        },
        {
          "internalType": "uint256",
          "name": "deadline",
          "type": "uint256"
        }
      ],
      "name": "addLiquidity",
      "outputs": [],
      "stateMutability": "nonpayable",
      "type": "function"
    },
    {
      "inputs": [
        {
          "internalType": "address",
          "name": "",
          "type": "address"
        }
      ],
      "name": "allowedTokens",
      "outputs": [
        {
          "internalType": "bool",
          "name": "",
          "type": "bool"
        }
      ],
      "stateMutability": "view",
      "type": "function"
    },
    {
      "inputs": [
        {
          "internalType": "uint256",
          "name": "_deposit",
          "type": "uint256"
        },
        {
          "internalType": "uint256",
          "name": "_totalBalance",
          "type": "uint256"
        }
      ],
      "name": "calculateRange",
      "outputs": [
        {
          "internalType": "uint256",
          "name": "",
          "type": "uint256"
        }
      ],
      "stateMutability": "view",
      "type": "function"
    },
    {
      "inputs": [
        {
          "internalType": "address",
          "name": "",
          "type": "address"
        }
      ],
      "name": "currencyOracle",
      "outputs": [
        {
          "internalType": "address",
          "name": "",
          "type": "address"
        }
      ],
      "stateMutability": "view",
      "type": "function"
    },
    {
      "inputs": [],
      "name": "endRaffle",
      "outputs": [],
      "stateMutability": "nonpayable",
      "type": "function"
    },
    {
      "inputs": [
        {
          "internalType": "address",
          "name": "_player",
          "type": "address"
        },
        {
          "internalType": "uint256",
          "name": "_raffleId",
          "type": "uint256"
        }
      ],
      "name": "getBalanceInUsd",
      "outputs": [
        {
          "internalType": "uint256",
          "name": "",
          "type": "uint256"
        }
      ],
      "stateMutability": "view",
      "type": "function"
    },
    {
      "inputs": [
        {
          "internalType": "address",
          "name": "_token",
          "type": "address"
        }
      ],
      "name": "getCurrencyExt",
      "outputs": [
        {
          "internalType": "int256",
          "name": "",
          "type": "int256"
        }
      ],
      "stateMutability": "view",
      "type": "function"
    },
    {
      "inputs": [
        {
          "internalType": "address",
          "name": "_tokenA",
          "type": "address"
        },
        {
          "internalType": "address",
          "name": "_tokenB",
          "type": "address"
        },
        {
          "internalType": "uint256",
          "name": "_amount",
          "type": "uint256"
        }
      ],
      "name": "getLiquidity",
      "outputs": [
        {
          "internalType": "uint256[]",
          "name": "",
          "type": "uint256[]"
        }
      ],
      "stateMutability": "view",
      "type": "function"
    },
    {
      "inputs": [
        {
          "internalType": "uint256",
          "name": "_raffleId",
          "type": "uint256"
        }
      ],
      "name": "getRafflePlayers",
      "outputs": [
        {
          "components": [
            {
              "internalType": "address",
              "name": "playerAddress",
              "type": "address"
            },
            {
              "internalType": "uint256",
              "name": "playerBet",
              "type": "uint256"
            },
            {
              "internalType": "uint256",
              "name": "prevDepSum",
              "type": "uint256"
            }
          ],
          "internalType": "struct Raffle.Player[]",
          "name": "",
          "type": "tuple[]"
        }
      ],
      "stateMutability": "view",
      "type": "function"
    },
    {
      "inputs": [
        {
          "internalType": "address",
          "name": "_token",
          "type": "address"
        }
      ],
      "name": "getTokenOracle",
      "outputs": [
        {
          "internalType": "address",
          "name": "",
          "type": "address"
        }
      ],
      "stateMutability": "view",
      "type": "function"
    },
    {
      "inputs": [
        {
          "internalType": "address",
          "name": "",
          "type": "address"
        }
      ],
      "name": "isAdmin",
      "outputs": [
        {
          "internalType": "bool",
          "name": "",
          "type": "bool"
        }
      ],
      "stateMutability": "view",
      "type": "function"
    },
    {
      "inputs": [
        {
          "internalType": "address",
          "name": "",
          "type": "address"
        }
      ],
      "name": "isPlayed",
      "outputs": [
        {
          "internalType": "uint256",
          "name": "",
          "type": "uint256"
        }
      ],
      "stateMutability": "view",
      "type": "function"
    },
    {
      "inputs": [
        {
          "internalType": "uint256",
          "name": "",
          "type": "uint256"
        }
      ],
      "name": "isPotTransfered",
      "outputs": [
        {
          "internalType": "bool",
          "name": "",
          "type": "bool"
        }
      ],
      "stateMutability": "view",
      "type": "function"
    },
    {
      "inputs": [
        {
          "internalType": "uint256",
          "name": "",
          "type": "uint256"
        }
      ],
      "name": "isRaffleInProcess",
      "outputs": [
        {
          "internalType": "bool",
          "name": "",
          "type": "bool"
        }
      ],
      "stateMutability": "view",
      "type": "function"
    },
    {
      "inputs": [
        {
          "internalType": "address",
          "name": "_user",
          "type": "address"
        },
        {
          "internalType": "bool",
          "name": "_status",
          "type": "bool"
        }
      ],
      "name": "manageAdmins",
      "outputs": [],
      "stateMutability": "nonpayable",
      "type": "function"
    },
    {
      "inputs": [
        {
          "internalType": "address",
          "name": "_token",
          "type": "address"
        },
        {
          "internalType": "address",
          "name": "_dataFeed",
          "type": "address"
        }
      ],
      "name": "manageCurrencyOracle",
      "outputs": [],
      "stateMutability": "nonpayable",
      "type": "function"
    },
    {
      "inputs": [
        {
          "internalType": "address",
          "name": "_token",
          "type": "address"
        },
        {
          "internalType": "address",
          "name": "_dataFeed",
          "type": "address"
        },
        {
          "internalType": "bool",
          "name": "_isAllowed",
          "type": "bool"
        }
      ],
      "name": "manageTokenAndOracle",
      "outputs": [],
      "stateMutability": "nonpayable",
      "type": "function"
    },
    {
      "inputs": [
        {
          "internalType": "address",
          "name": "_token",
          "type": "address"
        },
        {
          "internalType": "bool",
          "name": "_isAllowed",
          "type": "bool"
        }
      ],
      "name": "manageTokensList",
      "outputs": [],
      "stateMutability": "nonpayable",
      "type": "function"
    },
    {
      "inputs": [
        {
          "internalType": "address",
          "name": "_uniSwapRouter",
          "type": "address"
        }
      ],
      "name": "manageUniswap",
      "outputs": [],
      "stateMutability": "nonpayable",
      "type": "function"
    },
    {
      "inputs": [
        {
          "internalType": "contract VRFv2Consumer",
          "name": "_consumer",
          "type": "address"
        }
      ],
      "name": "manageVrfRandom",
      "outputs": [],
      "stateMutability": "nonpayable",
      "type": "function"
    },
    {
      "inputs": [
        {
          "internalType": "address",
          "name": "_wethToken",
          "type": "address"
        }
      ],
      "name": "manageWeth",
      "outputs": [],
      "stateMutability": "nonpayable",
      "type": "function"
    },
    {
      "inputs": [],
      "name": "owner",
      "outputs": [
        {
          "internalType": "address",
          "name": "",
          "type": "address"
        }
      ],
      "stateMutability": "view",
      "type": "function"
    },
    {
      "inputs": [
        {
          "internalType": "uint256",
          "name": "_num1",
          "type": "uint256"
        },
        {
          "internalType": "uint256",
          "name": "_num2",
          "type": "uint256"
        }
      ],
      "name": "percCalc",
      "outputs": [
        {
          "internalType": "uint256",
          "name": "",
          "type": "uint256"
        }
      ],
      "stateMutability": "pure",
      "type": "function"
    },
    {
      "inputs": [
        {
          "internalType": "address",
          "name": "_token",
          "type": "address"
        },
        {
          "internalType": "uint256",
          "name": "_amount",
          "type": "uint256"
        }
      ],
      "name": "playRaffle",
      "outputs": [],
      "stateMutability": "nonpayable",
      "type": "function"
    },
    {
      "inputs": [],
      "name": "raffleId",
      "outputs": [
        {
          "internalType": "uint256",
          "name": "",
          "type": "uint256"
        }
      ],
      "stateMutability": "view",
      "type": "function"
    },
    {
      "inputs": [
        {
          "internalType": "uint256",
          "name": "",
          "type": "uint256"
        },
        {
          "internalType": "uint256",
          "name": "",
          "type": "uint256"
        }
      ],
      "name": "rafflePlayers",
      "outputs": [
        {
          "internalType": "address",
          "name": "playerAddress",
          "type": "address"
        },
        {
          "internalType": "uint256",
          "name": "playerBet",
          "type": "uint256"
        },
        {
          "internalType": "uint256",
          "name": "prevDepSum",
          "type": "uint256"
        }
      ],
      "stateMutability": "view",
      "type": "function"
    },
    {
      "inputs": [
        {
          "internalType": "uint256",
          "name": "",
          "type": "uint256"
        }
      ],
      "name": "rafflePot",
      "outputs": [
        {
          "internalType": "uint256",
          "name": "",
          "type": "uint256"
        }
      ],
      "stateMutability": "view",
      "type": "function"
    },
    {
      "inputs": [
        {
          "internalType": "uint256",
          "name": "",
          "type": "uint256"
        }
      ],
      "name": "rafflePotInWeth",
      "outputs": [
        {
          "internalType": "uint256",
          "name": "",
          "type": "uint256"
        }
      ],
      "stateMutability": "view",
      "type": "function"
    },
    {
      "inputs": [
        {
          "internalType": "uint256",
          "name": "",
          "type": "uint256"
        }
      ],
      "name": "raffleWinner",
      "outputs": [
        {
          "internalType": "address",
          "name": "",
          "type": "address"
        }
      ],
      "stateMutability": "view",
      "type": "function"
    },
    {
      "inputs": [],
      "name": "renounceOwnership",
      "outputs": [],
      "stateMutability": "nonpayable",
      "type": "function"
    },
    {
      "inputs": [
        {
          "internalType": "uint256",
          "name": "",
          "type": "uint256"
        }
      ],
      "name": "requestIdForRaffle",
      "outputs": [
        {
          "internalType": "uint256",
          "name": "",
          "type": "uint256"
        }
      ],
      "stateMutability": "view",
      "type": "function"
    },
    {
      "inputs": [
        {
          "internalType": "address",
          "name": "newOwner",
          "type": "address"
        }
      ],
      "name": "transferOwnership",
      "outputs": [],
      "stateMutability": "nonpayable",
      "type": "function"
    },
    {
      "inputs": [],
      "name": "uniswapRouterAddress",
      "outputs": [
        {
          "internalType": "address",
          "name": "",
          "type": "address"
        }
      ],
      "stateMutability": "view",
      "type": "function"
    },
    {
      "inputs": [
        {
          "internalType": "address",
          "name": "",
          "type": "address"
        },
        {
          "internalType": "uint256",
          "name": "",
          "type": "uint256"
        }
      ],
      "name": "userPosInRaffle",
      "outputs": [
        {
          "internalType": "uint256",
          "name": "",
          "type": "uint256"
        }
      ],
      "stateMutability": "view",
      "type": "function"
    },
    {
      "inputs": [
        {
          "internalType": "uint256",
          "name": "_raffleId",
          "type": "uint256"
        },
        {
          "internalType": "address",
          "name": "_supposedWinner",
          "type": "address"
        }
      ],
      "name": "verifyAndTransfer",
      "outputs": [],
      "stateMutability": "nonpayable",
      "type": "function"
    },
    {
      "inputs": [
        {
          "internalType": "uint256",
          "name": "_raffleId",
          "type": "uint256"
        },
        {
          "internalType": "address",
          "name": "_supposedWinner",
          "type": "address"
        }
      ],
      "name": "verifyWinner",
      "outputs": [
        {
          "internalType": "bool",
          "name": "",
          "type": "bool"
        }
      ],
      "stateMutability": "view",
      "type": "function"
    }
  ],
  "transactionHash": "0x9fedcdf765aaf217ab835c257a9dca8b3d354fbc010880d52e3b01d714a12568",
  "args": [
    "0x8b56001485d5d47A97f1B7b53b3B3734bA3b2FBD",
    "0x7b79995e5f793A07Bc00c21412e50Ecae098E7f9",
    "0xC532a74256D3Db42D0Bf7a0400fEFDbad7694008"
  ],
  "numDeployments": 2,
  "solcInputHash": "e5d71967c89672be912e9819939b60d0",
  "bytecode": "0x60806040523480156200001157600080fd5b5060405162002aa038038062002aa0833981016040819052620000349162000131565b6200003f33620000c8565b601080546001600160a01b03199081166001600160a01b0395861617909155600e805482169385169390931790925560118054831691909316908117909255600f80549091169091179055336000908152600b60209081526040808320805460ff199081166001908117909255600d548552600a90935292208054909116909117905562000185565b600080546001600160a01b038381166001600160a01b0319831681178455604051919092169283917f8be0079c531659141344cd1fd0a4f28419497f9722a3daafe3b4186f6b6457e09190a35050565b6001600160a01b03811681146200012e57600080fd5b50565b6000806000606084860312156200014757600080fd5b8351620001548162000118565b6020850151909350620001678162000118565b60408501519092506200017a8162000118565b809150509250925092565b61290b80620001956000396000f3fe608060405234801561001057600080fd5b50600436106102c85760003560e01c8063728a4f621161017b578063c48e84bc116100d8578063e8e337001161008c578063ee095c0e11610071578063ee095c0e146106b3578063f2fde38b146106bb578063f82695a8146106ce57600080fd5b8063e8e337001461068d578063edae876f146106a057600080fd5b8063e248a7e6116100bd578063e248a7e61461062c578063e5a0b2ef1461063f578063e744092e1461066a57600080fd5b8063c48e84bc146105f0578063cf0d96401461061957600080fd5b80638da5cb5b1161012f578063a176459511610114578063a1764595146105c1578063ae91fc30146105d4578063b375603c146105e757600080fd5b80638da5cb5b1461059d5780639a421bc8146105ae57600080fd5b80637a926165116101605780637a9261651461054a5780637b9126661461055d5780637c8c0b921461057d57600080fd5b8063728a4f621461050a578063789a12fd1461052a57600080fd5b80634b50c6a6116102295780636b1cdd84116101dd57806370e424e3116101c257806370e424e3146104cc578063714d60d4146104ef578063715018a61461050257600080fd5b80636b1cdd84146104895780636f3c796d146104ac57600080fd5b80634fe23e3b1161020e5780634fe23e3b1461043e57806354d36b321461044d57806364c191751461046057600080fd5b80634b50c6a61461040b5780634b5a2aa51461042b57600080fd5b806320ca3c7f1161028057806329b1438d1161026557806329b1438d146103cf5780632e0f2625146103e257806332573ea7146103f857600080fd5b806320ca3c7f1461039957806324d7806c146103ac57600080fd5b80630a5882d0116102b15780630a5882d01461032d57806318f5f2a814610342578063196c52f81461038657600080fd5b80630974dd7f146102cd57806309f87fcb1461030a575b600080fd5b6102e06102db366004612196565b6106e1565b604080516001600160a01b0390941684526020840192909252908201526060015b60405180910390f35b61031d6103183660046121cd565b61072d565b6040519015158152602001610301565b61034061033b36600461220b565b610a02565b005b61036e610350366004612256565b6001600160a01b039081166000908152600260205260409020541690565b6040516001600160a01b039091168152602001610301565b61034061039436600461227a565b610a50565b600f5461036e906001600160a01b031681565b61031d6103ba366004612256565b600b6020526000908152604090205460ff1681565b6103406103dd3660046122a8565b610add565b6103ea601281565b604051908152602001610301565b6103ea610406366004612196565b610ce0565b6103ea610419366004612256565b60076020526000908152604090205481565b610340610439366004612256565b610d9a565b6103ea670de0b6b3a763ffff81565b61034061045b366004612256565b610e1b565b61036e61046e3660046122d4565b6009602052600090815260409020546001600160a01b031681565b61031d6104973660046122d4565b600a6020526000908152604090205460ff1681565b6103ea6104ba3660046122d4565b60036020526000908152604090205481565b61031d6104da3660046122d4565b60056020526000908152604090205460ff1681565b6103ea6104fd366004612196565b610e9c565b610340610ec9565b61051d6105183660046122ed565b610edd565b604051610301919061232e565b61053d6105383660046122d4565b610fce565b6040516103019190612372565b6103406105583660046123d4565b611063565b6103ea61056b3660046122d4565b60046020526000908152604090205481565b6103ea61058b3660046122d4565b60086020526000908152604090205481565b6000546001600160a01b031661036e565b6103406105bc3660046121cd565b6110ed565b600e5461036e906001600160a01b031681565b6103406105e23660046123d4565b6112cf565b6103ea600d5481565b61036e6105fe366004612256565b6002602052600090815260409020546001600160a01b031681565b6103ea610627366004612256565b611359565b6103ea61063a3660046122a8565b611364565b6103ea61064d3660046122a8565b600c60209081526000928352604080842090915290825290205481565b61031d610678366004612256565b60016020526000908152604090205460ff1681565b61034061069b366004612402565b6113bd565b60115461036e906001600160a01b031681565b61034061179f565b6103406106c9366004612256565b611905565b6103406106dc366004612256565b611995565b600660205281600052604060002081815481106106fd57600080fd5b60009182526020909120600390910201805460018201546002909201546001600160a01b03909116935090915083565b601054600d546000908152600860205260408082205490517fd8a4676f00000000000000000000000000000000000000000000000000000000815260048101919091529091829182916001600160a01b03169063d8a4676f90602401600060405180830381865afa1580156107a6573d6000803e3d6000fd5b505050506040513d6000823e601f3d908101601f191682016040526107ce9190810190612532565b915091508161084a5760405162461bcd60e51b815260206004820152602360248201527f52616e646f6d206e756d62657220686173206e6f74207265636569766564207960448201527f657421000000000000000000000000000000000000000000000000000000000060648201526084015b60405180910390fd5b6001600160a01b0384166000908152600c602090815260408083208884528252808320546006909252822080549192918390811061088a5761088a612583565b600091825260209182902060408051606081018252600390930290910180546001600160a01b03908116808552600183015495850195909552600290910154918301919091529092508716146109485760405162461bcd60e51b815260206004820152602360248201527f4e6f207375636820706c6179657220696e20726571756573746564207261666660448201527f6c652100000000000000000000000000000000000000000000000000000000006064820152608401610841565b60008260000361095a5750600061097e565b61097b8260400151600360008b815260200190815260200160002054610ce0565b90505b60208083015160008a81526003909252604082205461099d9190610ce0565b905060006109ab82846125af565b905060006109bb6012600a6126a6565b876000815181106109ce576109ce612583565b60200260200101516109e091906126c8565b905083811180156109f15750818111155b985050505050505050505b92915050565b610a0a611a20565b6001600160a01b039283166000908152600160209081526040808320805460ff191694151594909417909355600290522080546001600160a01b03191691909216179055565b336000908152600b602052604090205460ff16610aaf5760405162461bcd60e51b815260206004820152601c60248201527f4f6e6c792061646d696e2063616e20706572666f726d207468697321000000006044820152606401610841565b6001600160a01b03918216600090815260026020526040902080546001600160a01b03191691909216179055565b600d5460009081526005602052604090205460ff16610bd557600d546000908152600a602052604090205460ff16610ba35760405162461bcd60e51b815260206004820152604360248201527f43616e6e6f74207374617274206e657720726166666c65206265666f7265207060448201527f726576696f75732077696e6e6572206861736e2774207265636569766564207060648201527f6f74210000000000000000000000000000000000000000000000000000000000608482015260a401610841565b600d8054906000610bb3836126dc565b9091555050600d546000908152600560205260409020805460ff191660011790555b600d5460009081526005602052604090205460ff16610c365760405162461bcd60e51b815260206004820152601560248201527f5468697320726f756e642068617320656e6465642100000000000000000000006044820152606401610841565b600d543360009081526007602052604090205403610cbc5760405162461bcd60e51b815260206004820152602360248201527f596f75206861766520616c7265616479206a6f696e6564207468697320726f7560448201527f6e642100000000000000000000000000000000000000000000000000000000006064820152608401610841565b610cc98282600d54611a7a565b5050600d5433600090815260076020526040902055565b6000808211610d575760405162461bcd60e51b815260206004820152602760248201527f546f74616c2062616c616e6365206d757374206265206772656174657220746860448201527f616e207a65726f000000000000000000000000000000000000000000000000006064820152608401610841565b6000610d638484610e9c565b90506000610d79670de0b6b3a763ffff836126f5565b9050610d876012600a6126a6565b610d91908261270c565b95945050505050565b336000908152600b602052604090205460ff16610df95760405162461bcd60e51b815260206004820152601c60248201527f4f6e6c792061646d696e2063616e20706572666f726d207468697321000000006044820152606401610841565b601080546001600160a01b0319166001600160a01b0392909216919091179055565b336000908152600b602052604090205460ff16610e7a5760405162461bcd60e51b815260206004820152601c60248201527f4f6e6c792061646d696e2063616e20706572666f726d207468697321000000006044820152606401610841565b600e80546001600160a01b0319166001600160a01b0392909216919091179055565b600080610eab6012600a6126a6565b610eb590856126f5565b9050610ec1838261270c565b949350505050565b610ed1611a20565b610edb6000612039565b565b604080516002808252606080830184529260009291906020830190803683370190505090508481600081518110610f1657610f16612583565b60200260200101906001600160a01b031690816001600160a01b0316815250508381600181518110610f4a57610f4a612583565b6001600160a01b03928316602091820292909201015260115460405163d06ca61f60e01b815291169063d06ca61f90610f899086908590600401612765565b600060405180830381865afa158015610fa6573d6000803e3d6000fd5b505050506040513d6000823e601f3d908101601f19168201604052610d91919081019061277e565b606060066000838152602001908152602001600020805480602002602001604051908101604052809291908181526020016000905b82821015611058576000848152602090819020604080516060810182526003860290920180546001600160a01b0316835260018082015484860152600290910154918301919091529083529092019101611003565b505050509050919050565b336000908152600b602052604090205460ff166110c25760405162461bcd60e51b815260206004820152601c60248201527f4f6e6c792061646d696e2063616e20706572666f726d207468697321000000006044820152606401610841565b6001600160a01b03919091166000908152600b60205260409020805460ff1916911515919091179055565b336000908152600b602052604090205460ff1661114c5760405162461bcd60e51b815260206004820152601c60248201527f4f6e6c792061646d696e2063616e20706572666f726d207468697321000000006044820152606401610841565b600d546000908152600a602052604090205460ff16156111ae5760405162461bcd60e51b815260206004820152601760248201527f416c7265616479207472616e73666572656420706f74210000000000000000006044820152606401610841565b6111b8828261072d565b6112045760405162461bcd60e51b815260206004820152600d60248201527f57726f6e6720706c6179657221000000000000000000000000000000000000006044820152606401610841565b6000828152600a60209081526040808320805460ff19166001179055600e54600492839052928190205490517fa9059cbb0000000000000000000000000000000000000000000000000000000081526001600160a01b039093169263a9059cbb926112879286929091016001600160a01b03929092168252602082015260400190565b6020604051808303816000875af11580156112a6573d6000803e3d6000fd5b505050506040513d601f19601f820116820180604052508101906112ca91906127b3565b505050565b336000908152600b602052604090205460ff1661132e5760405162461bcd60e51b815260206004820152601c60248201527f4f6e6c792061646d696e2063616e20706572666f726d207468697321000000006044820152606401610841565b6001600160a01b03919091166000908152600160205260409020805460ff1916911515919091179055565b60006109fc82612089565b60008181526006602090815260408083206001600160a01b0386168452600c8352818420600d548552909252822054815481106113a3576113a3612583565b906000526020600020906003020160010154905092915050565b604051636eb1769f60e11b815233600482015230602482015286906001600160a01b038a169063dd62ed3e90604401602060405180830381865afa158015611409573d6000803e3d6000fd5b505050506040513d601f19601f8201168201806040525081019061142d91906127d0565b101580156114a95750604051636eb1769f60e11b815233600482015230602482015285906001600160a01b0389169063dd62ed3e90604401602060405180830381865afa158015611482573d6000803e3d6000fd5b505050506040513d601f19601f820116820180604052508101906114a691906127d0565b10155b6114f55760405162461bcd60e51b815260206004820152600f60248201527f417070726f76616c206661696c656400000000000000000000000000000000006044820152606401610841565b6040516323b872dd60e01b8152336004820152306024820152604481018790526001600160a01b038916906323b872dd906064016020604051808303816000875af1158015611548573d6000803e3d6000fd5b505050506040513d601f19601f8201168201806040525081019061156c91906127b3565b506040516323b872dd60e01b8152336004820152306024820152604481018690526001600160a01b038816906323b872dd906064016020604051808303816000875af11580156115c0573d6000803e3d6000fd5b505050506040513d601f19601f820116820180604052508101906115e491906127b3565b50600f5460405163095ea7b360e01b81526001600160a01b039182166004820152602481018890529089169063095ea7b3906044016020604051808303816000875af1158015611638573d6000803e3d6000fd5b505050506040513d601f19601f8201168201806040525081019061165c91906127b3565b50600f5460405163095ea7b360e01b81526001600160a01b039182166004820152602481018790529088169063095ea7b3906044016020604051808303816000875af11580156116b0573d6000803e3d6000fd5b505050506040513d601f19601f820116820180604052508101906116d491906127b3565b506011546040517fe8e337000000000000000000000000000000000000000000000000000000000081526001600160a01b038a81166004830152898116602483015260448201899052606482018890526084820187905260a4820186905284811660c483015260e482018490529091169063e8e3370090610104016060604051808303816000875af115801561176e573d6000803e3d6000fd5b505050506040513d601f19601f8201168201806040525081019061179291906127e9565b5050505050505050505050565b336000908152600b602052604090205460ff166117fe5760405162461bcd60e51b815260206004820152601c60248201527f4f6e6c792061646d696e2063616e20706572666f726d207468697321000000006044820152606401610841565b600d5460009081526005602052604090205460ff1661185f5760405162461bcd60e51b815260206004820152601560248201527f5468697320726166666c6520697320656e6465642100000000000000000000006044820152606401610841565b601060009054906101000a90046001600160a01b03166001600160a01b031663e0c862896040518163ffffffff1660e01b81526004016020604051808303816000875af11580156118b4573d6000803e3d6000fd5b505050506040513d601f19601f820116820180604052508101906118d891906127d0565b600d805460009081526008602090815260408083209490945591548152600590915220805460ff19169055565b61190d611a20565b6001600160a01b0381166119895760405162461bcd60e51b815260206004820152602660248201527f4f776e61626c653a206e6577206f776e657220697320746865207a65726f206160448201527f64647265737300000000000000000000000000000000000000000000000000006064820152608401610841565b61199281612039565b50565b336000908152600b602052604090205460ff166119f45760405162461bcd60e51b815260206004820152601c60248201527f4f6e6c792061646d696e2063616e20706572666f726d207468697321000000006044820152606401610841565b601180546001600160a01b039092166001600160a01b03199283168117909155600f8054909216179055565b6000546001600160a01b03163314610edb5760405162461bcd60e51b815260206004820181905260248201527f4f776e61626c653a2063616c6c6572206973206e6f7420746865206f776e65726044820152606401610841565b6001600160a01b038316600090815260016020526040902054839060ff16611ae45760405162461bcd60e51b815260206004820152601760248201527f546f6b656e206973206e6f7420737570706f72746564210000000000000000006044820152606401610841565b6040516323b872dd60e01b8152336004820152306024820152604481018490526001600160a01b038516906323b872dd906064016020604051808303816000875af1158015611b37573d6000803e3d6000fd5b505050506040513d601f19601f82011682018060405250810190611b5b91906127b3565b506040517f70a0823100000000000000000000000000000000000000000000000000000000815230600482015283906001600160a01b038616906370a0823190602401602060405180830381865afa158015611bbb573d6000803e3d6000fd5b505050506040513d601f19601f82011682018060405250810190611bdf91906127d0565b10158015611bed5750600083115b611c395760405162461bcd60e51b815260206004820152601360248201527f4e6f7420656e6f7567682062616c616e636521000000000000000000000000006044820152606401610841565b6000611c4485612089565b90506000611c5285836126f5565b60408051600280825260608201835292935060009290916020830190803683370190505090508681600081518110611c8c57611c8c612583565b6001600160a01b039283166020918202929092010152600e54825191169082906001908110611cbd57611cbd612583565b6001600160a01b039283166020918202929092010152600f5460405163095ea7b360e01b81529082166004820152602481018890529088169063095ea7b3906044016020604051808303816000875af1158015611d1e573d6000803e3d6000fd5b505050506040513d601f19601f82011682018060405250810190611d4291906127b3565b5060115460405163d06ca61f60e01b81526000916001600160a01b03169063d06ca61f90611d76908a908690600401612765565b600060405180830381865afa158015611d93573d6000803e3d6000fd5b505050506040513d6000823e601f3d908101601f19168201604052611dbb919081019061277e565b60115481519192506000916001600160a01b03909116906338ed1739908a908590611de890600190612817565b81518110611df857611df8612583565b6020026020010151863042610258611e1091906125af565b6040518663ffffffff1660e01b8152600401611e3095949392919061282a565b6000604051808303816000875af1158015611e4f573d6000803e3d6000fd5b505050506040513d6000823e601f3d908101601f19168201604052611e77919081019061277e565b60018351611e859190612817565b81518110611e9557611e95612583565b60200260200101519050611ecc604051806060016040528060006001600160a01b0316815260200160008152602001600081525090565b3381600001906001600160a01b031690816001600160a01b0316815250508481602001818152505060036000898152602001908152602001600020548160400181815250506006600089815260200190815260200160002080549050600c6000336001600160a01b03166001600160a01b0316815260200190815260200160002060008a8152602001908152602001600020819055506006600089815260200190815260200160002081908060018154018082558091505060019003906000526020600020906003020160009091909190915060008201518160000160006101000a8154816001600160a01b0302191690836001600160a01b031602179055506020820151816001015560408201518160020155505084600360008a8152602001908152602001600020600082825461200591906125af565b9091555050600088815260046020526040812080548492906120289084906125af565b909155505050505050505050505050565b600080546001600160a01b038381166001600160a01b0319831681178455604051919092169283917f8be0079c531659141344cd1fd0a4f28419497f9722a3daafe3b4186f6b6457e09190a35050565b6001600160a01b038116600090815260016020526040812054829060ff166120f35760405162461bcd60e51b815260206004820152601760248201527f546f6b656e206973206e6f7420737570706f72746564210000000000000000006044820152606401610841565b6001600160a01b038084166000908152600260205260408082205481517ffeaf968c0000000000000000000000000000000000000000000000000000000081529151931692839163feaf968c9160048083019260a09291908290030181865afa158015612164573d6000803e3d6000fd5b505050506040513d601f19601f820116820180604052508101906121889190612885565b509198975050505050505050565b600080604083850312156121a957600080fd5b50508035926020909101359150565b6001600160a01b038116811461199257600080fd5b600080604083850312156121e057600080fd5b8235915060208301356121f2816121b8565b809150509250929050565b801515811461199257600080fd5b60008060006060848603121561222057600080fd5b833561222b816121b8565b9250602084013561223b816121b8565b9150604084013561224b816121fd565b809150509250925092565b60006020828403121561226857600080fd5b8135612273816121b8565b9392505050565b6000806040838503121561228d57600080fd5b8235612298816121b8565b915060208301356121f2816121b8565b600080604083850312156122bb57600080fd5b82356122c6816121b8565b946020939093013593505050565b6000602082840312156122e657600080fd5b5035919050565b60008060006060848603121561230257600080fd5b833561230d816121b8565b9250602084013561231d816121b8565b929592945050506040919091013590565b6020808252825182820181905260009190848201906040850190845b818110156123665783518352928401929184019160010161234a565b50909695505050505050565b602080825282518282018190526000919060409081850190868401855b828110156123c757815180516001600160a01b031685528681015187860152850151858501526060909301929085019060010161238f565b5091979650505050505050565b600080604083850312156123e757600080fd5b82356123f2816121b8565b915060208301356121f2816121fd565b600080600080600080600080610100898b03121561241f57600080fd5b883561242a816121b8565b9750602089013561243a816121b8565b965060408901359550606089013594506080890135935060a0890135925060c0890135612466816121b8565b8092505060e089013590509295985092959890939650565b634e487b7160e01b600052604160045260246000fd5b600082601f8301126124a557600080fd5b8151602067ffffffffffffffff808311156124c2576124c261247e565b8260051b604051601f19603f830116810181811084821117156124e7576124e761247e565b604052938452602081870181019490810192508785111561250757600080fd5b6020870191505b848210156125275781518352918301919083019061250e565b979650505050505050565b6000806040838503121561254557600080fd5b8251612550816121fd565b602084015190925067ffffffffffffffff81111561256d57600080fd5b61257985828601612494565b9150509250929050565b634e487b7160e01b600052603260045260246000fd5b634e487b7160e01b600052601160045260246000fd5b808201808211156109fc576109fc612599565b600181815b808511156125fd5781600019048211156125e3576125e3612599565b808516156125f057918102915b93841c93908002906125c7565b509250929050565b600082612614575060016109fc565b81612621575060006109fc565b816001811461263757600281146126415761265d565b60019150506109fc565b60ff84111561265257612652612599565b50506001821b6109fc565b5060208310610133831016604e8410600b8410161715612680575081810a6109fc565b61268a83836125c2565b806000190482111561269e5761269e612599565b029392505050565b60006122738383612605565b634e487b7160e01b600052601260045260246000fd5b6000826126d7576126d76126b2565b500690565b6000600182016126ee576126ee612599565b5060010190565b80820281158282048414176109fc576109fc612599565b60008261271b5761271b6126b2565b500490565b60008151808452602080850194506020840160005b8381101561275a5781516001600160a01b031687529582019590820190600101612735565b509495945050505050565b828152604060208201526000610ec16040830184612720565b60006020828403121561279057600080fd5b815167ffffffffffffffff8111156127a757600080fd5b610ec184828501612494565b6000602082840312156127c557600080fd5b8151612273816121fd565b6000602082840312156127e257600080fd5b5051919050565b6000806000606084860312156127fe57600080fd5b8351925060208401519150604084015190509250925092565b818103818111156109fc576109fc612599565b85815284602082015260a06040820152600061284960a0830186612720565b6001600160a01b0394909416606083015250608001529392505050565b805169ffffffffffffffffffff8116811461288057600080fd5b919050565b600080600080600060a0868803121561289d57600080fd5b6128a686612866565b94506020860151935060408601519250606086015191506128c960808701612866565b9050929550929590935056fea264697066735822122046cda596d69a6577e21579d885a75b3d7a0aa29e8fb0b79e9b08322d3913416c64736f6c63430008170033",
  "devdoc": {
    "kind": "dev",
    "methods": {
      "owner()": {
        "details": "Returns the address of the current owner."
      },
      "renounceOwnership()": {
        "details": "Leaves the contract without owner. It will not be possible to call `onlyOwner` functions. Can only be called by the current owner. NOTE: Renouncing ownership will leave the contract without an owner, thereby disabling any functionality that is only available to the owner."
      },
      "transferOwnership(address)": {
        "details": "Transfers ownership of the contract to a new account (`newOwner`). Can only be called by the current owner."
      }
    },
    "version": 1
  },
  "userdoc": {
    "kind": "user",
    "methods": {},
    "version": 1
  },
  "storageLayout": {
    "storage": [
      {
        "astId": 2264,
        "contract": "contracts/Raffle.sol:Raffle",
        "label": "_owner",
        "offset": 0,
        "slot": "0",
        "type": "t_address"
      },
      {
        "astId": 1019,
        "contract": "contracts/Raffle.sol:Raffle",
        "label": "allowedTokens",
        "offset": 0,
        "slot": "1",
        "type": "t_mapping(t_address,t_bool)"
      },
      {
        "astId": 1023,
        "contract": "contracts/Raffle.sol:Raffle",
        "label": "currencyOracle",
        "offset": 0,
        "slot": "2",
        "type": "t_mapping(t_address,t_address)"
      },
      {
        "astId": 1027,
        "contract": "contracts/Raffle.sol:Raffle",
        "label": "rafflePot",
        "offset": 0,
        "slot": "3",
        "type": "t_mapping(t_uint256,t_uint256)"
      },
      {
        "astId": 1031,
        "contract": "contracts/Raffle.sol:Raffle",
        "label": "rafflePotInWeth",
        "offset": 0,
        "slot": "4",
        "type": "t_mapping(t_uint256,t_uint256)"
      },
      {
        "astId": 1035,
        "contract": "contracts/Raffle.sol:Raffle",
        "label": "isRaffleInProcess",
        "offset": 0,
        "slot": "5",
        "type": "t_mapping(t_uint256,t_bool)"
      },
      {
        "astId": 1041,
        "contract": "contracts/Raffle.sol:Raffle",
        "label": "rafflePlayers",
        "offset": 0,
        "slot": "6",
        "type": "t_mapping(t_uint256,t_array(t_struct(Player)1092_storage)dyn_storage)"
      },
      {
        "astId": 1045,
        "contract": "contracts/Raffle.sol:Raffle",
        "label": "isPlayed",
        "offset": 0,
        "slot": "7",
        "type": "t_mapping(t_address,t_uint256)"
      },
      {
        "astId": 1049,
        "contract": "contracts/Raffle.sol:Raffle",
        "label": "requestIdForRaffle",
        "offset": 0,
        "slot": "8",
        "type": "t_mapping(t_uint256,t_uint256)"
      },
      {
        "astId": 1053,
        "contract": "contracts/Raffle.sol:Raffle",
        "label": "raffleWinner",
        "offset": 0,
        "slot": "9",
        "type": "t_mapping(t_uint256,t_address)"
      },
      {
        "astId": 1057,
        "contract": "contracts/Raffle.sol:Raffle",
        "label": "isPotTransfered",
        "offset": 0,
        "slot": "10",
        "type": "t_mapping(t_uint256,t_bool)"
      },
      {
        "astId": 1061,
        "contract": "contracts/Raffle.sol:Raffle",
        "label": "isAdmin",
        "offset": 0,
        "slot": "11",
        "type": "t_mapping(t_address,t_bool)"
      },
      {
        "astId": 1067,
        "contract": "contracts/Raffle.sol:Raffle",
        "label": "userPosInRaffle",
        "offset": 0,
        "slot": "12",
        "type": "t_mapping(t_address,t_mapping(t_uint256,t_uint256))"
      },
      {
        "astId": 1069,
        "contract": "contracts/Raffle.sol:Raffle",
        "label": "raffleId",
        "offset": 0,
        "slot": "13",
        "type": "t_uint256"
      },
      {
        "astId": 1077,
        "contract": "contracts/Raffle.sol:Raffle",
        "label": "_weth",
        "offset": 0,
        "slot": "14",
        "type": "t_address"
      },
      {
        "astId": 1079,
        "contract": "contracts/Raffle.sol:Raffle",
        "label": "uniswapRouterAddress",
        "offset": 0,
        "slot": "15",
        "type": "t_address"
      },
      {
        "astId": 1082,
        "contract": "contracts/Raffle.sol:Raffle",
        "label": "randomNumberConsumer",
        "offset": 0,
        "slot": "16",
        "type": "t_contract(VRFv2Consumer)2210"
      },
      {
        "astId": 1085,
        "contract": "contracts/Raffle.sol:Raffle",
        "label": "_router",
        "offset": 0,
        "slot": "17",
        "type": "t_contract(IUniswapV2Router02)2535"
      }
    ],
    "types": {
      "t_address": {
        "encoding": "inplace",
        "label": "address",
        "numberOfBytes": "20"
      },
      "t_array(t_struct(Player)1092_storage)dyn_storage": {
        "base": "t_struct(Player)1092_storage",
        "encoding": "dynamic_array",
        "label": "struct Raffle.Player[]",
        "numberOfBytes": "32"
      },
      "t_bool": {
        "encoding": "inplace",
        "label": "bool",
        "numberOfBytes": "1"
      },
      "t_contract(IUniswapV2Router02)2535": {
        "encoding": "inplace",
        "label": "contract IUniswapV2Router02",
        "numberOfBytes": "20"
      },
      "t_contract(VRFv2Consumer)2210": {
        "encoding": "inplace",
        "label": "contract VRFv2Consumer",
        "numberOfBytes": "20"
      },
      "t_mapping(t_address,t_address)": {
        "encoding": "mapping",
        "key": "t_address",
        "label": "mapping(address => address)",
        "numberOfBytes": "32",
        "value": "t_address"
      },
      "t_mapping(t_address,t_bool)": {
        "encoding": "mapping",
        "key": "t_address",
        "label": "mapping(address => bool)",
        "numberOfBytes": "32",
        "value": "t_bool"
      },
      "t_mapping(t_address,t_mapping(t_uint256,t_uint256))": {
        "encoding": "mapping",
        "key": "t_address",
        "label": "mapping(address => mapping(uint256 => uint256))",
        "numberOfBytes": "32",
        "value": "t_mapping(t_uint256,t_uint256)"
      },
      "t_mapping(t_address,t_uint256)": {
        "encoding": "mapping",
        "key": "t_address",
        "label": "mapping(address => uint256)",
        "numberOfBytes": "32",
        "value": "t_uint256"
      },
      "t_mapping(t_uint256,t_address)": {
        "encoding": "mapping",
        "key": "t_uint256",
        "label": "mapping(uint256 => address)",
        "numberOfBytes": "32",
        "value": "t_address"
      },
      "t_mapping(t_uint256,t_array(t_struct(Player)1092_storage)dyn_storage)": {
        "encoding": "mapping",
        "key": "t_uint256",
        "label": "mapping(uint256 => struct Raffle.Player[])",
        "numberOfBytes": "32",
        "value": "t_array(t_struct(Player)1092_storage)dyn_storage"
      },
      "t_mapping(t_uint256,t_bool)": {
        "encoding": "mapping",
        "key": "t_uint256",
        "label": "mapping(uint256 => bool)",
        "numberOfBytes": "32",
        "value": "t_bool"
      },
      "t_mapping(t_uint256,t_uint256)": {
        "encoding": "mapping",
        "key": "t_uint256",
        "label": "mapping(uint256 => uint256)",
        "numberOfBytes": "32",
        "value": "t_uint256"
      },
      "t_struct(Player)1092_storage": {
        "encoding": "inplace",
        "label": "struct Raffle.Player",
        "members": [
          {
            "astId": 1087,
            "contract": "contracts/Raffle.sol:Raffle",
            "label": "playerAddress",
            "offset": 0,
            "slot": "0",
            "type": "t_address"
          },
          {
            "astId": 1089,
            "contract": "contracts/Raffle.sol:Raffle",
            "label": "playerBet",
            "offset": 0,
            "slot": "1",
            "type": "t_uint256"
          },
          {
            "astId": 1091,
            "contract": "contracts/Raffle.sol:Raffle",
            "label": "prevDepSum",
            "offset": 0,
            "slot": "2",
            "type": "t_uint256"
          }
        ],
        "numberOfBytes": "96"
      },
      "t_uint256": {
        "encoding": "inplace",
        "label": "uint256",
        "numberOfBytes": "32"
      }
    }
  }
}