{
  "address": "0x7C8cB9888f15fb0D18290b1761bD2c43E72C6994",
  "abi": [
    {
      "inputs": [
        {
          "internalType": "contract VRFv2Consumer",
          "name": "_consumer",
          "type": "address"
        },
        {
          "internalType": "address",
          "name": "_wethAddress",
          "type": "address"
        },
        {
          "internalType": "address",
          "name": "_uniSwapRouter",
          "type": "address"
        }
      ],
      "stateMutability": "nonpayable",
      "type": "constructor"
    },
    {
      "anonymous": false,
      "inputs": [
        {
          "indexed": true,
          "internalType": "address",
          "name": "previousOwner",
          "type": "address"
        },
        {
          "indexed": true,
          "internalType": "address",
          "name": "newOwner",
          "type": "address"
        }
      ],
      "name": "OwnershipTransferred",
      "type": "event"
    },
    {
      "inputs": [],
      "name": "DECIMALS",
      "outputs": [
        {
          "internalType": "uint256",
          "name": "",
          "type": "uint256"
        }
      ],
      "stateMutability": "view",
      "type": "function"
    },
    {
      "inputs": [],
      "name": "RANDOM_MAX_RANGE",
      "outputs": [
        {
          "internalType": "uint256",
          "name": "",
          "type": "uint256"
        }
      ],
      "stateMutability": "view",
      "type": "function"
    },
    {
      "inputs": [
        {
          "internalType": "address",
          "name": "tokenA",
          "type": "address"
        },
        {
          "internalType": "address",
          "name": "tokenB",
          "type": "address"
        },
        {
          "internalType": "uint256",
          "name": "amountADesired",
          "type": "uint256"
        },
        {
          "internalType": "uint256",
          "name": "amountBDesired",
          "type": "uint256"
        },
        {
          "internalType": "uint256",
          "name": "amountAMin",
          "type": "uint256"
        },
        {
          "internalType": "uint256",
          "name": "amountBMin",
          "type": "uint256"
        },
        {
          "internalType": "address",
          "name": "to",
          "type": "address"
        },
        {
          "internalType": "uint256",
          "name": "deadline",
          "type": "uint256"
        }
      ],
      "name": "addLiquidity",
      "outputs": [],
      "stateMutability": "nonpayable",
      "type": "function"
    },
    {
      "inputs": [
        {
          "internalType": "address",
          "name": "",
          "type": "address"
        }
      ],
      "name": "allowedTokens",
      "outputs": [
        {
          "internalType": "bool",
          "name": "",
          "type": "bool"
        }
      ],
      "stateMutability": "view",
      "type": "function"
    },
    {
      "inputs": [
        {
          "internalType": "uint256",
          "name": "_deposit",
          "type": "uint256"
        },
        {
          "internalType": "uint256",
          "name": "_totalBalance",
          "type": "uint256"
        }
      ],
      "name": "calculateRange",
      "outputs": [
        {
          "internalType": "uint256",
          "name": "",
          "type": "uint256"
        }
      ],
      "stateMutability": "view",
      "type": "function"
    },
    {
      "inputs": [
        {
          "internalType": "address",
          "name": "",
          "type": "address"
        }
      ],
      "name": "currencyOracle",
      "outputs": [
        {
          "internalType": "address",
          "name": "",
          "type": "address"
        }
      ],
      "stateMutability": "view",
      "type": "function"
    },
    {
      "inputs": [],
      "name": "endRaffle",
      "outputs": [],
      "stateMutability": "nonpayable",
      "type": "function"
    },
    {
      "inputs": [],
      "name": "founder",
      "outputs": [
        {
          "internalType": "address",
          "name": "",
          "type": "address"
        }
      ],
      "stateMutability": "view",
      "type": "function"
    },
    {
      "inputs": [
        {
          "internalType": "address",
          "name": "_player",
          "type": "address"
        },
        {
          "internalType": "uint256",
          "name": "_raffleId",
          "type": "uint256"
        }
      ],
      "name": "getBalanceInUsd",
      "outputs": [
        {
          "internalType": "uint256",
          "name": "",
          "type": "uint256"
        }
      ],
      "stateMutability": "view",
      "type": "function"
    },
    {
      "inputs": [
        {
          "internalType": "address",
          "name": "_token",
          "type": "address"
        }
      ],
      "name": "getCurrencyExt",
      "outputs": [
        {
          "internalType": "int256",
          "name": "",
          "type": "int256"
        }
      ],
      "stateMutability": "view",
      "type": "function"
    },
    {
      "inputs": [
        {
          "internalType": "address",
          "name": "_tokenA",
          "type": "address"
        },
        {
          "internalType": "address",
          "name": "_tokenB",
          "type": "address"
        },
        {
          "internalType": "uint256",
          "name": "_amount",
          "type": "uint256"
        }
      ],
      "name": "getLiquidity",
      "outputs": [
        {
          "internalType": "uint256[]",
          "name": "",
          "type": "uint256[]"
        }
      ],
      "stateMutability": "view",
      "type": "function"
    },
    {
      "inputs": [
        {
          "internalType": "uint256",
          "name": "_raffleId",
          "type": "uint256"
        }
      ],
      "name": "getRafflePlayers",
      "outputs": [
        {
          "components": [
            {
              "internalType": "address",
              "name": "playerAddress",
              "type": "address"
            },
            {
              "internalType": "uint256",
              "name": "playerBet",
              "type": "uint256"
            },
            {
              "internalType": "uint256",
              "name": "prevDepSum",
              "type": "uint256"
            }
          ],
          "internalType": "struct Raffle.Player[]",
          "name": "",
          "type": "tuple[]"
        }
      ],
      "stateMutability": "view",
      "type": "function"
    },
    {
      "inputs": [],
      "name": "getRandomNumber",
      "outputs": [
        {
          "internalType": "uint256",
          "name": "",
          "type": "uint256"
        }
      ],
      "stateMutability": "nonpayable",
      "type": "function"
    },
    {
      "inputs": [
        {
          "internalType": "address",
          "name": "_token",
          "type": "address"
        }
      ],
      "name": "getTokenOracle",
      "outputs": [
        {
          "internalType": "address",
          "name": "",
          "type": "address"
        }
      ],
      "stateMutability": "view",
      "type": "function"
    },
    {
      "inputs": [],
      "name": "getWinnerNumber",
      "outputs": [
        {
          "internalType": "uint256",
          "name": "",
          "type": "uint256"
        }
      ],
      "stateMutability": "view",
      "type": "function"
    },
    {
      "inputs": [
        {
          "internalType": "address",
          "name": "",
          "type": "address"
        }
      ],
      "name": "isAdmin",
      "outputs": [
        {
          "internalType": "bool",
          "name": "",
          "type": "bool"
        }
      ],
      "stateMutability": "view",
      "type": "function"
    },
    {
      "inputs": [
        {
          "internalType": "address",
          "name": "",
          "type": "address"
        }
      ],
      "name": "isPlayed",
      "outputs": [
        {
          "internalType": "uint256",
          "name": "",
          "type": "uint256"
        }
      ],
      "stateMutability": "view",
      "type": "function"
    },
    {
      "inputs": [
        {
          "internalType": "uint256",
          "name": "",
          "type": "uint256"
        }
      ],
      "name": "isPotTransfered",
      "outputs": [
        {
          "internalType": "bool",
          "name": "",
          "type": "bool"
        }
      ],
      "stateMutability": "view",
      "type": "function"
    },
    {
      "inputs": [
        {
          "internalType": "uint256",
          "name": "",
          "type": "uint256"
        }
      ],
      "name": "isRaffleInProcess",
      "outputs": [
        {
          "internalType": "bool",
          "name": "",
          "type": "bool"
        }
      ],
      "stateMutability": "view",
      "type": "function"
    },
    {
      "inputs": [
        {
          "internalType": "address",
          "name": "_user",
          "type": "address"
        },
        {
          "internalType": "bool",
          "name": "_status",
          "type": "bool"
        }
      ],
      "name": "manageAdmins",
      "outputs": [],
      "stateMutability": "nonpayable",
      "type": "function"
    },
    {
      "inputs": [
        {
          "internalType": "address",
          "name": "_token",
          "type": "address"
        },
        {
          "internalType": "address",
          "name": "_dataFeed",
          "type": "address"
        }
      ],
      "name": "manageCurrencyOracle",
      "outputs": [],
      "stateMutability": "nonpayable",
      "type": "function"
    },
    {
      "inputs": [
        {
          "internalType": "address",
          "name": "_token",
          "type": "address"
        },
        {
          "internalType": "address",
          "name": "_dataFeed",
          "type": "address"
        },
        {
          "internalType": "bool",
          "name": "_isAllowed",
          "type": "bool"
        }
      ],
      "name": "manageTokenAndOracle",
      "outputs": [],
      "stateMutability": "nonpayable",
      "type": "function"
    },
    {
      "inputs": [
        {
          "internalType": "address",
          "name": "_token",
          "type": "address"
        },
        {
          "internalType": "bool",
          "name": "_isAllowed",
          "type": "bool"
        }
      ],
      "name": "manageTokensList",
      "outputs": [],
      "stateMutability": "nonpayable",
      "type": "function"
    },
    {
      "inputs": [
        {
          "internalType": "address",
          "name": "_uniSwapRouter",
          "type": "address"
        }
      ],
      "name": "manageUniswap",
      "outputs": [],
      "stateMutability": "nonpayable",
      "type": "function"
    },
    {
      "inputs": [
        {
          "internalType": "contract VRFv2Consumer",
          "name": "_consumer",
          "type": "address"
        }
      ],
      "name": "manageVrfRandom",
      "outputs": [],
      "stateMutability": "nonpayable",
      "type": "function"
    },
    {
      "inputs": [
        {
          "internalType": "address",
          "name": "_wethToken",
          "type": "address"
        }
      ],
      "name": "manageWeth",
      "outputs": [],
      "stateMutability": "nonpayable",
      "type": "function"
    },
    {
      "inputs": [],
      "name": "owner",
      "outputs": [
        {
          "internalType": "address",
          "name": "",
          "type": "address"
        }
      ],
      "stateMutability": "view",
      "type": "function"
    },
    {
      "inputs": [
        {
          "internalType": "uint256",
          "name": "_num1",
          "type": "uint256"
        },
        {
          "internalType": "uint256",
          "name": "_num2",
          "type": "uint256"
        }
      ],
      "name": "percCalc",
      "outputs": [
        {
          "internalType": "uint256",
          "name": "",
          "type": "uint256"
        }
      ],
      "stateMutability": "pure",
      "type": "function"
    },
    {
      "inputs": [
        {
          "internalType": "address",
          "name": "_token",
          "type": "address"
        },
        {
          "internalType": "uint256",
          "name": "_amount",
          "type": "uint256"
        }
      ],
      "name": "playRaffle",
      "outputs": [],
      "stateMutability": "nonpayable",
      "type": "function"
    },
    {
      "inputs": [],
      "name": "raffleId",
      "outputs": [
        {
          "internalType": "uint256",
          "name": "",
          "type": "uint256"
        }
      ],
      "stateMutability": "view",
      "type": "function"
    },
    {
      "inputs": [
        {
          "internalType": "uint256",
          "name": "",
          "type": "uint256"
        },
        {
          "internalType": "uint256",
          "name": "",
          "type": "uint256"
        }
      ],
      "name": "rafflePlayers",
      "outputs": [
        {
          "internalType": "address",
          "name": "playerAddress",
          "type": "address"
        },
        {
          "internalType": "uint256",
          "name": "playerBet",
          "type": "uint256"
        },
        {
          "internalType": "uint256",
          "name": "prevDepSum",
          "type": "uint256"
        }
      ],
      "stateMutability": "view",
      "type": "function"
    },
    {
      "inputs": [
        {
          "internalType": "uint256",
          "name": "",
          "type": "uint256"
        }
      ],
      "name": "rafflePot",
      "outputs": [
        {
          "internalType": "uint256",
          "name": "",
          "type": "uint256"
        }
      ],
      "stateMutability": "view",
      "type": "function"
    },
    {
      "inputs": [
        {
          "internalType": "uint256",
          "name": "",
          "type": "uint256"
        }
      ],
      "name": "rafflePotInWeth",
      "outputs": [
        {
          "internalType": "uint256",
          "name": "",
          "type": "uint256"
        }
      ],
      "stateMutability": "view",
      "type": "function"
    },
    {
      "inputs": [
        {
          "internalType": "uint256",
          "name": "",
          "type": "uint256"
        }
      ],
      "name": "raffleWinner",
      "outputs": [
        {
          "internalType": "address",
          "name": "",
          "type": "address"
        }
      ],
      "stateMutability": "view",
      "type": "function"
    },
    {
      "inputs": [
        {
          "internalType": "uint256",
          "name": "",
          "type": "uint256"
        }
      ],
      "name": "raffleWinnerNumber",
      "outputs": [
        {
          "internalType": "uint256",
          "name": "",
          "type": "uint256"
        }
      ],
      "stateMutability": "view",
      "type": "function"
    },
    {
      "inputs": [],
      "name": "renounceOwnership",
      "outputs": [],
      "stateMutability": "nonpayable",
      "type": "function"
    },
    {
      "inputs": [
        {
          "internalType": "uint256",
          "name": "",
          "type": "uint256"
        }
      ],
      "name": "requestIdForRaffle",
      "outputs": [
        {
          "internalType": "uint256",
          "name": "",
          "type": "uint256"
        }
      ],
      "stateMutability": "view",
      "type": "function"
    },
    {
      "inputs": [
        {
          "internalType": "address",
          "name": "newOwner",
          "type": "address"
        }
      ],
      "name": "transferOwnership",
      "outputs": [],
      "stateMutability": "nonpayable",
      "type": "function"
    },
    {
      "inputs": [],
      "name": "uniswapRouterAddress",
      "outputs": [
        {
          "internalType": "address",
          "name": "",
          "type": "address"
        }
      ],
      "stateMutability": "view",
      "type": "function"
    },
    {
      "inputs": [
        {
          "internalType": "address",
          "name": "",
          "type": "address"
        },
        {
          "internalType": "uint256",
          "name": "",
          "type": "uint256"
        }
      ],
      "name": "userPosInRaffle",
      "outputs": [
        {
          "internalType": "uint256",
          "name": "",
          "type": "uint256"
        }
      ],
      "stateMutability": "view",
      "type": "function"
    },
    {
      "inputs": [
        {
          "internalType": "uint256",
          "name": "_raffleId",
          "type": "uint256"
        },
        {
          "internalType": "address",
          "name": "_supposedWinner",
          "type": "address"
        }
      ],
      "name": "verifyAndTransfer",
      "outputs": [],
      "stateMutability": "nonpayable",
      "type": "function"
    },
    {
      "inputs": [
        {
          "internalType": "uint256",
          "name": "_raffleId",
          "type": "uint256"
        },
        {
          "internalType": "address",
          "name": "_supposedWinner",
          "type": "address"
        }
      ],
      "name": "verifyWinner",
      "outputs": [
        {
          "internalType": "bool",
          "name": "",
          "type": "bool"
        }
      ],
      "stateMutability": "view",
      "type": "function"
    },
    {
      "inputs": [],
      "name": "x",
      "outputs": [
        {
          "internalType": "uint256",
          "name": "",
          "type": "uint256"
        }
      ],
      "stateMutability": "view",
      "type": "function"
    },
    {
      "inputs": [],
      "name": "y",
      "outputs": [
        {
          "internalType": "uint256",
          "name": "",
          "type": "uint256"
        }
      ],
      "stateMutability": "view",
      "type": "function"
    },
    {
      "inputs": [],
      "name": "z",
      "outputs": [
        {
          "internalType": "uint256",
          "name": "",
          "type": "uint256"
        }
      ],
      "stateMutability": "view",
      "type": "function"
    }
  ],
  "transactionHash": "0x96621b79e2674b62c76bc948818c8650da06176a3228ddd70ac6b98f2094d112",
  "args": [
    "0x8b56001485d5d47A97f1B7b53b3B3734bA3b2FBD",
    "0x7b79995e5f793A07Bc00c21412e50Ecae098E7f9",
    "0xC532a74256D3Db42D0Bf7a0400fEFDbad7694008"
  ],
  "numDeployments": 1,
  "solcInputHash": "56eb49356fa1c9d558888234aefe5444",
  "bytecode": "0x60806040523480156200001157600080fd5b5060405162002afc38038062002afc833981016040819052620000349162000131565b6200003f33620000c8565b601580546001600160a01b03199081166001600160a01b03958616179091556012805482169385169390931790925560168054831691909316908117909255601380549091169091179055336000908152600c60209081526040808320805460ff199081166001908117909255600e548552600b90935292208054909116909117905562000185565b600080546001600160a01b038381166001600160a01b0319831681178455604051919092169283917f8be0079c531659141344cd1fd0a4f28419497f9722a3daafe3b4186f6b6457e09190a35050565b6001600160a01b03811681146200012e57600080fd5b50565b6000806000606084860312156200014757600080fd5b8351620001548162000118565b6020850151909350620001678162000118565b60408501519092506200017a8162000118565b809150509250925092565b61296780620001956000396000f3fe608060405234801561001057600080fd5b50600436106102ff5760003560e01c8063715018a61161019c578063b375603c116100ee578063e5a0b2ef11610097578063ee095c0e11610071578063ee095c0e14610731578063f2fde38b14610739578063f82695a81461074c57600080fd5b8063e5a0b2ef146106d0578063e744092e146106fb578063e8e337001461071e57600080fd5b8063cf0d9640116100c8578063cf0d9640146106a2578063dbdff2c1146106b5578063e248a7e6146106bd57600080fd5b8063b375603c14610667578063c48e84bc14610670578063c5d7802e1461069957600080fd5b80637c8c0b9211610150578063a56dfe4a1161012a578063a56dfe4a14610634578063a86d2e191461063d578063ae91fc301461065457600080fd5b80637c8c0b92146105f05780638da5cb5b146106105780639a421bc81461062157600080fd5b8063789a12fd11610181578063789a12fd1461059d5780637a926165146105bd5780637b912666146105d057600080fd5b8063715018a614610575578063728a4f621461057d57600080fd5b80634b50c6a61161025557806354d36b32116102095780636f3c796d116101e35780636f3c796d1461051f57806370e424e31461053f578063714d60d41461056257600080fd5b806354d36b32146104c057806364c19175146104d35780636b1cdd84146104fc57600080fd5b80634d853ee51161023a5780634d853ee51461047e5780634e3ac00f146104915780634fe23e3b146104b157600080fd5b80634b50c6a61461044b5780634b5a2aa51461046b57600080fd5b8063196c52f8116102b757806329b1438d1161029157806329b1438d1461041d5780632e0f26251461043057806332573ea71461043857600080fd5b8063196c52f8146103d457806320ca3c7f146103e757806324d7806c146103fa57600080fd5b80630a5882d0116102e85780630a5882d0146103645780630c55699c1461037957806318f5f2a81461039057600080fd5b80630974dd7f1461030457806309f87fcb14610341575b600080fd5b61031761031236600461220e565b61075f565b604080516001600160a01b0390941684526020840192909252908201526060015b60405180910390f35b61035461034f366004612245565b6107ab565b6040519015158152602001610338565b610377610372366004612283565b610a4f565b005b610382600f5481565b604051908152602001610338565b6103bc61039e3660046122ce565b6001600160a01b039081166000908152600260205260409020541690565b6040516001600160a01b039091168152602001610338565b6103776103e23660046122f2565b610a9d565b6013546103bc906001600160a01b031681565b6103546104083660046122ce565b600c6020526000908152604090205460ff1681565b61037761042b366004612320565b610b2a565b610382601281565b61038261044636600461220e565b610d12565b6103826104593660046122ce565b60076020526000908152604090205481565b6103776104793660046122ce565b610dcc565b6014546103bc906001600160a01b031681565b61038261049f36600461234c565b60086020526000908152604090205481565b610382670de0b6b3a763ffff81565b6103776104ce3660046122ce565b610e4d565b6103bc6104e136600461234c565b600a602052600090815260409020546001600160a01b031681565b61035461050a36600461234c565b600b6020526000908152604090205460ff1681565b61038261052d36600461234c565b60036020526000908152604090205481565b61035461054d36600461234c565b60056020526000908152604090205460ff1681565b61038261057036600461220e565b610ece565b610377610efb565b61059061058b366004612365565b610f0f565b60405161033891906123a6565b6105b06105ab36600461234c565b611000565b60405161033891906123ea565b6103776105cb36600461244c565b611095565b6103826105de36600461234c565b60046020526000908152604090205481565b6103826105fe36600461234c565b60096020526000908152604090205481565b6000546001600160a01b03166103bc565b61037761062f366004612245565b61111f565b61038260105481565b600e54600090815260086020526040902054610382565b61037761066236600461244c565b611301565b610382600e5481565b6103bc61067e3660046122ce565b6002602052600090815260409020546001600160a01b031681565b61038260115481565b6103826106b03660046122ce565b61138b565b610382611396565b6103826106cb366004612320565b6113d4565b6103826106de366004612320565b600d60209081526000928352604080842090915290825290205481565b6103546107093660046122ce565b60016020526000908152604090205460ff1681565b61037761072c36600461247a565b61142d565b61037761180f565b6103776107473660046122ce565b611891565b61037761075a3660046122ce565b611921565b6006602052816000526040600020818154811061077b57600080fd5b60009182526020909120600390910201805460018201546002909201546001600160a01b03909116935090915083565b601554600e546000908152600960205260408082205490517fd8a4676f00000000000000000000000000000000000000000000000000000000815260048101919091529091829182916001600160a01b03169063d8a4676f90602401600060405180830381865afa158015610824573d6000803e3d6000fd5b505050506040513d6000823e601f3d908101601f1916820160405261084c91908101906125aa565b91509150816108ad5760405162461bcd60e51b815260206004820152602260248201527f52616e646f6d206e756d626572206973206e6f74207265636569766564207965604482015261742160f01b60648201526084015b60405180910390fd5b6001600160a01b0384166000908152600d60209081526040808320888452825280832054600690925282208054919291839081106108ed576108ed6125fb565b600091825260209182902060408051606081018252600390930290910180546001600160a01b03908116808552600183015495850195909552600290910154918301919091529092508716146109ab5760405162461bcd60e51b815260206004820152602360248201527f4e6f207375636820706c6179657220696e20726571756573746564207261666660448201527f6c6521000000000000000000000000000000000000000000000000000000000060648201526084016108a4565b6000826000036109bd575060006109e1565b6109de8260400151600360008b815260200190815260200160002054610d12565b90505b60208083015160008a815260039092526040822054610a009190610d12565b90506000610a0e8284612627565b9050600086600081518110610a2557610a256125fb565b602002602001015190508381118015610a3e5750818111155b985050505050505050505b92915050565b610a576119ac565b6001600160a01b039283166000908152600160209081526040808320805460ff191694151594909417909355600290522080546001600160a01b03191691909216179055565b336000908152600c602052604090205460ff16610afc5760405162461bcd60e51b815260206004820152601c60248201527f4f6e6c792061646d696e2063616e20706572666f726d2074686973210000000060448201526064016108a4565b6001600160a01b03918216600090815260026020526040902080546001600160a01b03191691909216179055565b600e5460009081526005602052604090205460ff16610c0757600e546000908152600b602052604090205460ff16610bd55760405162461bcd60e51b815260206004820152604260248201527f43616e6e6f74207374617274206e657720726166666c65206265666f7265207060448201527f726576696f75732077696e6e6572206861736e2774207265636569766520706f606482015261742160f01b608482015260a4016108a4565b600e8054906000610be58361263a565b9091555050600e546000908152600560205260409020805460ff191660011790555b600e5460009081526005602052604090205460ff16610c685760405162461bcd60e51b815260206004820152601560248201527f5468697320726f756e642068617320656e64656421000000000000000000000060448201526064016108a4565b600e543360009081526007602052604090205403610cee5760405162461bcd60e51b815260206004820152602360248201527f596f75206861766520616c7265616479206a6f696e6564207468697320726f7560448201527f6e6421000000000000000000000000000000000000000000000000000000000060648201526084016108a4565b610cfb8282600e54611a06565b5050600e5433600090815260076020526040902055565b6000808211610d895760405162461bcd60e51b815260206004820152602760248201527f546f74616c2062616c616e6365206d757374206265206772656174657220746860448201527f616e207a65726f0000000000000000000000000000000000000000000000000060648201526084016108a4565b6000610d958484610ece565b90506000610dab670de0b6b3a763ffff83612653565b9050610db96012600a61274e565b610dc3908261275a565b95945050505050565b336000908152600c602052604090205460ff16610e2b5760405162461bcd60e51b815260206004820152601c60248201527f4f6e6c792061646d696e2063616e20706572666f726d2074686973210000000060448201526064016108a4565b601580546001600160a01b0319166001600160a01b0392909216919091179055565b336000908152600c602052604090205460ff16610eac5760405162461bcd60e51b815260206004820152601c60248201527f4f6e6c792061646d696e2063616e20706572666f726d2074686973210000000060448201526064016108a4565b601280546001600160a01b0319166001600160a01b0392909216919091179055565b600080610edd6012600a61274e565b610ee79085612653565b9050610ef3838261275a565b949350505050565b610f036119ac565b610f0d6000611fc5565b565b604080516002808252606080830184529260009291906020830190803683370190505090508481600081518110610f4857610f486125fb565b60200260200101906001600160a01b031690816001600160a01b0316815250508381600181518110610f7c57610f7c6125fb565b6001600160a01b03928316602091820292909201015260165460405163d06ca61f60e01b815291169063d06ca61f90610fbb90869085906004016127c1565b600060405180830381865afa158015610fd8573d6000803e3d6000fd5b505050506040513d6000823e601f3d908101601f19168201604052610dc391908101906127da565b606060066000838152602001908152602001600020805480602002602001604051908101604052809291908181526020016000905b8282101561108a576000848152602090819020604080516060810182526003860290920180546001600160a01b0316835260018082015484860152600290910154918301919091529083529092019101611035565b505050509050919050565b336000908152600c602052604090205460ff166110f45760405162461bcd60e51b815260206004820152601c60248201527f4f6e6c792061646d696e2063616e20706572666f726d2074686973210000000060448201526064016108a4565b6001600160a01b03919091166000908152600c60205260409020805460ff1916911515919091179055565b336000908152600c602052604090205460ff1661117e5760405162461bcd60e51b815260206004820152601c60248201527f4f6e6c792061646d696e2063616e20706572666f726d2074686973210000000060448201526064016108a4565b600e546000908152600b602052604090205460ff16156111e05760405162461bcd60e51b815260206004820152601760248201527f416c7265616479207472616e73666572656420706f742100000000000000000060448201526064016108a4565b6111ea82826107ab565b6112365760405162461bcd60e51b815260206004820152600d60248201527f57726f6e6720706c61796572210000000000000000000000000000000000000060448201526064016108a4565b6000828152600b60209081526040808320805460ff19166001179055601254600492839052928190205490517fa9059cbb0000000000000000000000000000000000000000000000000000000081526001600160a01b039093169263a9059cbb926112b99286929091016001600160a01b03929092168252602082015260400190565b6020604051808303816000875af11580156112d8573d6000803e3d6000fd5b505050506040513d601f19601f820116820180604052508101906112fc919061280f565b505050565b336000908152600c602052604090205460ff166113605760405162461bcd60e51b815260206004820152601c60248201527f4f6e6c792061646d696e2063616e20706572666f726d2074686973210000000060448201526064016108a4565b6001600160a01b03919091166000908152600160205260409020805460ff1916911515919091179055565b6000610a4982612015565b60006113a360014361282c565b604080519140602083015242908201526060016040516020818303038152906040528051906020012060001c905090565b60008181526006602090815260408083206001600160a01b0386168452600d8352818420600e54855290925282205481548110611413576114136125fb565b906000526020600020906003020160010154905092915050565b604051636eb1769f60e11b815233600482015230602482015286906001600160a01b038a169063dd62ed3e90604401602060405180830381865afa158015611479573d6000803e3d6000fd5b505050506040513d601f19601f8201168201806040525081019061149d919061283f565b101580156115195750604051636eb1769f60e11b815233600482015230602482015285906001600160a01b0389169063dd62ed3e90604401602060405180830381865afa1580156114f2573d6000803e3d6000fd5b505050506040513d601f19601f82011682018060405250810190611516919061283f565b10155b6115655760405162461bcd60e51b815260206004820152600f60248201527f417070726f76616c206661696c6564000000000000000000000000000000000060448201526064016108a4565b6040516323b872dd60e01b8152336004820152306024820152604481018790526001600160a01b038916906323b872dd906064016020604051808303816000875af11580156115b8573d6000803e3d6000fd5b505050506040513d601f19601f820116820180604052508101906115dc919061280f565b506040516323b872dd60e01b8152336004820152306024820152604481018690526001600160a01b038816906323b872dd906064016020604051808303816000875af1158015611630573d6000803e3d6000fd5b505050506040513d601f19601f82011682018060405250810190611654919061280f565b5060135460405163095ea7b360e01b81526001600160a01b039182166004820152602481018890529089169063095ea7b3906044016020604051808303816000875af11580156116a8573d6000803e3d6000fd5b505050506040513d601f19601f820116820180604052508101906116cc919061280f565b5060135460405163095ea7b360e01b81526001600160a01b039182166004820152602481018790529088169063095ea7b3906044016020604051808303816000875af1158015611720573d6000803e3d6000fd5b505050506040513d601f19601f82011682018060405250810190611744919061280f565b506016546040517fe8e337000000000000000000000000000000000000000000000000000000000081526001600160a01b038a81166004830152898116602483015260448201899052606482018890526084820187905260a4820186905284811660c483015260e482018490529091169063e8e3370090610104016060604051808303816000875af11580156117de573d6000803e3d6000fd5b505050506040513d601f19601f820116820180604052508101906118029190612858565b5050505050505050505050565b336000908152600c602052604090205460ff1661186e5760405162461bcd60e51b815260206004820152601c60248201527f4f6e6c792061646d696e2063616e20706572666f726d2074686973210000000060448201526064016108a4565b611876612122565b600e546000908152600560205260409020805460ff19169055565b6118996119ac565b6001600160a01b0381166119155760405162461bcd60e51b815260206004820152602660248201527f4f776e61626c653a206e6577206f776e657220697320746865207a65726f206160448201527f646472657373000000000000000000000000000000000000000000000000000060648201526084016108a4565b61191e81611fc5565b50565b336000908152600c602052604090205460ff166119805760405162461bcd60e51b815260206004820152601c60248201527f4f6e6c792061646d696e2063616e20706572666f726d2074686973210000000060448201526064016108a4565b601680546001600160a01b039092166001600160a01b0319928316811790915560138054909216179055565b6000546001600160a01b03163314610f0d5760405162461bcd60e51b815260206004820181905260248201527f4f776e61626c653a2063616c6c6572206973206e6f7420746865206f776e657260448201526064016108a4565b6001600160a01b038316600090815260016020526040902054839060ff16611a705760405162461bcd60e51b815260206004820152601760248201527f546f6b656e206973206e6f7420737570706f727465642100000000000000000060448201526064016108a4565b6040516323b872dd60e01b8152336004820152306024820152604481018490526001600160a01b038516906323b872dd906064016020604051808303816000875af1158015611ac3573d6000803e3d6000fd5b505050506040513d601f19601f82011682018060405250810190611ae7919061280f565b506040517f70a0823100000000000000000000000000000000000000000000000000000000815230600482015283906001600160a01b038616906370a0823190602401602060405180830381865afa158015611b47573d6000803e3d6000fd5b505050506040513d601f19601f82011682018060405250810190611b6b919061283f565b10158015611b795750600083115b611bc55760405162461bcd60e51b815260206004820152601360248201527f4e6f7420656e6f7567682062616c616e6365210000000000000000000000000060448201526064016108a4565b6000611bd085612015565b90506000611bde8583612653565b60408051600280825260608201835292935060009290916020830190803683370190505090508681600081518110611c1857611c186125fb565b6001600160a01b039283166020918202929092010152601254825191169082906001908110611c4957611c496125fb565b6001600160a01b03928316602091820292909201015260135460405163095ea7b360e01b81529082166004820152602481018890529088169063095ea7b3906044016020604051808303816000875af1158015611caa573d6000803e3d6000fd5b505050506040513d601f19601f82011682018060405250810190611cce919061280f565b5060165460405163d06ca61f60e01b81526000916001600160a01b03169063d06ca61f90611d02908a9086906004016127c1565b600060405180830381865afa158015611d1f573d6000803e3d6000fd5b505050506040513d6000823e601f3d908101601f19168201604052611d4791908101906127da565b60165481519192506000916001600160a01b03909116906338ed1739908a908590611d749060019061282c565b81518110611d8457611d846125fb565b6020026020010151863042610258611d9c9190612627565b6040518663ffffffff1660e01b8152600401611dbc959493929190612886565b6000604051808303816000875af1158015611ddb573d6000803e3d6000fd5b505050506040513d6000823e601f3d908101601f19168201604052611e0391908101906127da565b60018351611e11919061282c565b81518110611e2157611e216125fb565b60200260200101519050611e58604051806060016040528060006001600160a01b0316815260200160008152602001600081525090565b3381600001906001600160a01b031690816001600160a01b0316815250508481602001818152505060036000898152602001908152602001600020548160400181815250506006600089815260200190815260200160002080549050600d6000336001600160a01b03166001600160a01b0316815260200190815260200160002060008a8152602001908152602001600020819055506006600089815260200190815260200160002081908060018154018082558091505060019003906000526020600020906003020160009091909190915060008201518160000160006101000a8154816001600160a01b0302191690836001600160a01b031602179055506020820151816001015560408201518160020155505084600360008a81526020019081526020016000206000828254611f919190612627565b909155505060008881526004602052604081208054849290611fb4908490612627565b909155505050505050505050505050565b600080546001600160a01b038381166001600160a01b0319831681178455604051919092169283917f8be0079c531659141344cd1fd0a4f28419497f9722a3daafe3b4186f6b6457e09190a35050565b6001600160a01b038116600090815260016020526040812054829060ff1661207f5760405162461bcd60e51b815260206004820152601760248201527f546f6b656e206973206e6f7420737570706f727465642100000000000000000060448201526064016108a4565b6001600160a01b038084166000908152600260205260408082205481517ffeaf968c0000000000000000000000000000000000000000000000000000000081529151931692839163feaf968c9160048083019260a09291908290030181865afa1580156120f0573d6000803e3d6000fd5b505050506040513d601f19601f8201168201806040525081019061211491906128e1565b509198975050505050505050565b336000908152600c602052604090205460ff166121815760405162461bcd60e51b815260206004820152601c60248201527f4f6e6c792061646d696e2063616e20706572666f726d2074686973210000000060448201526064016108a4565b601560009054906101000a90046001600160a01b03166001600160a01b031663e0c862896040518163ffffffff1660e01b81526004016020604051808303816000875af11580156121d6573d6000803e3d6000fd5b505050506040513d601f19601f820116820180604052508101906121fa919061283f565b600e54600090815260096020526040902055565b6000806040838503121561222157600080fd5b50508035926020909101359150565b6001600160a01b038116811461191e57600080fd5b6000806040838503121561225857600080fd5b82359150602083013561226a81612230565b809150509250929050565b801515811461191e57600080fd5b60008060006060848603121561229857600080fd5b83356122a381612230565b925060208401356122b381612230565b915060408401356122c381612275565b809150509250925092565b6000602082840312156122e057600080fd5b81356122eb81612230565b9392505050565b6000806040838503121561230557600080fd5b823561231081612230565b9150602083013561226a81612230565b6000806040838503121561233357600080fd5b823561233e81612230565b946020939093013593505050565b60006020828403121561235e57600080fd5b5035919050565b60008060006060848603121561237a57600080fd5b833561238581612230565b9250602084013561239581612230565b929592945050506040919091013590565b6020808252825182820181905260009190848201906040850190845b818110156123de578351835292840192918401916001016123c2565b50909695505050505050565b602080825282518282018190526000919060409081850190868401855b8281101561243f57815180516001600160a01b0316855286810151878601528501518585015260609093019290850190600101612407565b5091979650505050505050565b6000806040838503121561245f57600080fd5b823561246a81612230565b9150602083013561226a81612275565b600080600080600080600080610100898b03121561249757600080fd5b88356124a281612230565b975060208901356124b281612230565b965060408901359550606089013594506080890135935060a0890135925060c08901356124de81612230565b8092505060e089013590509295985092959890939650565b634e487b7160e01b600052604160045260246000fd5b600082601f83011261251d57600080fd5b8151602067ffffffffffffffff8083111561253a5761253a6124f6565b8260051b604051601f19603f8301168101818110848211171561255f5761255f6124f6565b604052938452602081870181019490810192508785111561257f57600080fd5b6020870191505b8482101561259f57815183529183019190830190612586565b979650505050505050565b600080604083850312156125bd57600080fd5b82516125c881612275565b602084015190925067ffffffffffffffff8111156125e557600080fd5b6125f18582860161250c565b9150509250929050565b634e487b7160e01b600052603260045260246000fd5b634e487b7160e01b600052601160045260246000fd5b80820180821115610a4957610a49612611565b60006001820161264c5761264c612611565b5060010190565b8082028115828204841417610a4957610a49612611565b600181815b808511156126a557816000190482111561268b5761268b612611565b8085161561269857918102915b93841c939080029061266f565b509250929050565b6000826126bc57506001610a49565b816126c957506000610a49565b81600181146126df57600281146126e957612705565b6001915050610a49565b60ff8411156126fa576126fa612611565b50506001821b610a49565b5060208310610133831016604e8410600b8410161715612728575081810a610a49565b612732838361266a565b806000190482111561274657612746612611565b029392505050565b60006122eb83836126ad565b60008261277757634e487b7160e01b600052601260045260246000fd5b500490565b60008151808452602080850194506020840160005b838110156127b65781516001600160a01b031687529582019590820190600101612791565b509495945050505050565b828152604060208201526000610ef3604083018461277c565b6000602082840312156127ec57600080fd5b815167ffffffffffffffff81111561280357600080fd5b610ef38482850161250c565b60006020828403121561282157600080fd5b81516122eb81612275565b81810381811115610a4957610a49612611565b60006020828403121561285157600080fd5b5051919050565b60008060006060848603121561286d57600080fd5b8351925060208401519150604084015190509250925092565b85815284602082015260a0604082015260006128a560a083018661277c565b6001600160a01b0394909416606083015250608001529392505050565b805169ffffffffffffffffffff811681146128dc57600080fd5b919050565b600080600080600060a086880312156128f957600080fd5b612902866128c2565b9450602086015193506040860151925060608601519150612925608087016128c2565b9050929550929590935056fea264697066735822122052c83720ba3884cb8d7bb6d469e239e5ce8f5b67d3f5ef8391c8290c5a9a71d864736f6c63430008170033",
  "devdoc": {
    "kind": "dev",
    "methods": {
      "owner()": {
        "details": "Returns the address of the current owner."
      },
      "renounceOwnership()": {
        "details": "Leaves the contract without owner. It will not be possible to call `onlyOwner` functions. Can only be called by the current owner. NOTE: Renouncing ownership will leave the contract without an owner, thereby disabling any functionality that is only available to the owner."
      },
      "transferOwnership(address)": {
        "details": "Transfers ownership of the contract to a new account (`newOwner`). Can only be called by the current owner."
      }
    },
    "version": 1
  },
  "userdoc": {
    "kind": "user",
    "methods": {},
    "version": 1
  },
  "storageLayout": {
    "storage": [
      {
        "astId": 14816,
        "contract": "contracts/Raffle.sol:Raffle",
        "label": "_owner",
        "offset": 0,
        "slot": "0",
        "type": "t_address"
      },
      {
        "astId": 13447,
        "contract": "contracts/Raffle.sol:Raffle",
        "label": "allowedTokens",
        "offset": 0,
        "slot": "1",
        "type": "t_mapping(t_address,t_bool)"
      },
      {
        "astId": 13451,
        "contract": "contracts/Raffle.sol:Raffle",
        "label": "currencyOracle",
        "offset": 0,
        "slot": "2",
        "type": "t_mapping(t_address,t_address)"
      },
      {
        "astId": 13455,
        "contract": "contracts/Raffle.sol:Raffle",
        "label": "rafflePot",
        "offset": 0,
        "slot": "3",
        "type": "t_mapping(t_uint256,t_uint256)"
      },
      {
        "astId": 13459,
        "contract": "contracts/Raffle.sol:Raffle",
        "label": "rafflePotInWeth",
        "offset": 0,
        "slot": "4",
        "type": "t_mapping(t_uint256,t_uint256)"
      },
      {
        "astId": 13463,
        "contract": "contracts/Raffle.sol:Raffle",
        "label": "isRaffleInProcess",
        "offset": 0,
        "slot": "5",
        "type": "t_mapping(t_uint256,t_bool)"
      },
      {
        "astId": 13469,
        "contract": "contracts/Raffle.sol:Raffle",
        "label": "rafflePlayers",
        "offset": 0,
        "slot": "6",
        "type": "t_mapping(t_uint256,t_array(t_struct(Player)13532_storage)dyn_storage)"
      },
      {
        "astId": 13473,
        "contract": "contracts/Raffle.sol:Raffle",
        "label": "isPlayed",
        "offset": 0,
        "slot": "7",
        "type": "t_mapping(t_address,t_uint256)"
      },
      {
        "astId": 13477,
        "contract": "contracts/Raffle.sol:Raffle",
        "label": "raffleWinnerNumber",
        "offset": 0,
        "slot": "8",
        "type": "t_mapping(t_uint256,t_uint256)"
      },
      {
        "astId": 13481,
        "contract": "contracts/Raffle.sol:Raffle",
        "label": "requestIdForRaffle",
        "offset": 0,
        "slot": "9",
        "type": "t_mapping(t_uint256,t_uint256)"
      },
      {
        "astId": 13485,
        "contract": "contracts/Raffle.sol:Raffle",
        "label": "raffleWinner",
        "offset": 0,
        "slot": "10",
        "type": "t_mapping(t_uint256,t_address)"
      },
      {
        "astId": 13489,
        "contract": "contracts/Raffle.sol:Raffle",
        "label": "isPotTransfered",
        "offset": 0,
        "slot": "11",
        "type": "t_mapping(t_uint256,t_bool)"
      },
      {
        "astId": 13493,
        "contract": "contracts/Raffle.sol:Raffle",
        "label": "isAdmin",
        "offset": 0,
        "slot": "12",
        "type": "t_mapping(t_address,t_bool)"
      },
      {
        "astId": 13499,
        "contract": "contracts/Raffle.sol:Raffle",
        "label": "userPosInRaffle",
        "offset": 0,
        "slot": "13",
        "type": "t_mapping(t_address,t_mapping(t_uint256,t_uint256))"
      },
      {
        "astId": 13501,
        "contract": "contracts/Raffle.sol:Raffle",
        "label": "raffleId",
        "offset": 0,
        "slot": "14",
        "type": "t_uint256"
      },
      {
        "astId": 13503,
        "contract": "contracts/Raffle.sol:Raffle",
        "label": "x",
        "offset": 0,
        "slot": "15",
        "type": "t_uint256"
      },
      {
        "astId": 13505,
        "contract": "contracts/Raffle.sol:Raffle",
        "label": "y",
        "offset": 0,
        "slot": "16",
        "type": "t_uint256"
      },
      {
        "astId": 13507,
        "contract": "contracts/Raffle.sol:Raffle",
        "label": "z",
        "offset": 0,
        "slot": "17",
        "type": "t_uint256"
      },
      {
        "astId": 13515,
        "contract": "contracts/Raffle.sol:Raffle",
        "label": "_weth",
        "offset": 0,
        "slot": "18",
        "type": "t_address"
      },
      {
        "astId": 13517,
        "contract": "contracts/Raffle.sol:Raffle",
        "label": "uniswapRouterAddress",
        "offset": 0,
        "slot": "19",
        "type": "t_address"
      },
      {
        "astId": 13519,
        "contract": "contracts/Raffle.sol:Raffle",
        "label": "founder",
        "offset": 0,
        "slot": "20",
        "type": "t_address"
      },
      {
        "astId": 13522,
        "contract": "contracts/Raffle.sol:Raffle",
        "label": "randomNumberConsumer",
        "offset": 0,
        "slot": "21",
        "type": "t_contract(VRFv2Consumer)14759"
      },
      {
        "astId": 13525,
        "contract": "contracts/Raffle.sol:Raffle",
        "label": "_router",
        "offset": 0,
        "slot": "22",
        "type": "t_contract(IUniswapV2Router02)15133"
      },
      {
        "astId": 13536,
        "contract": "contracts/Raffle.sol:Raffle",
        "label": "_gap",
        "offset": 0,
        "slot": "23",
        "type": "t_array(t_uint256)30_storage"
      }
    ],
    "types": {
      "t_address": {
        "encoding": "inplace",
        "label": "address",
        "numberOfBytes": "20"
      },
      "t_array(t_struct(Player)13532_storage)dyn_storage": {
        "base": "t_struct(Player)13532_storage",
        "encoding": "dynamic_array",
        "label": "struct Raffle.Player[]",
        "numberOfBytes": "32"
      },
      "t_array(t_uint256)30_storage": {
        "base": "t_uint256",
        "encoding": "inplace",
        "label": "uint256[30]",
        "numberOfBytes": "960"
      },
      "t_bool": {
        "encoding": "inplace",
        "label": "bool",
        "numberOfBytes": "1"
      },
      "t_contract(IUniswapV2Router02)15133": {
        "encoding": "inplace",
        "label": "contract IUniswapV2Router02",
        "numberOfBytes": "20"
      },
      "t_contract(VRFv2Consumer)14759": {
        "encoding": "inplace",
        "label": "contract VRFv2Consumer",
        "numberOfBytes": "20"
      },
      "t_mapping(t_address,t_address)": {
        "encoding": "mapping",
        "key": "t_address",
        "label": "mapping(address => address)",
        "numberOfBytes": "32",
        "value": "t_address"
      },
      "t_mapping(t_address,t_bool)": {
        "encoding": "mapping",
        "key": "t_address",
        "label": "mapping(address => bool)",
        "numberOfBytes": "32",
        "value": "t_bool"
      },
      "t_mapping(t_address,t_mapping(t_uint256,t_uint256))": {
        "encoding": "mapping",
        "key": "t_address",
        "label": "mapping(address => mapping(uint256 => uint256))",
        "numberOfBytes": "32",
        "value": "t_mapping(t_uint256,t_uint256)"
      },
      "t_mapping(t_address,t_uint256)": {
        "encoding": "mapping",
        "key": "t_address",
        "label": "mapping(address => uint256)",
        "numberOfBytes": "32",
        "value": "t_uint256"
      },
      "t_mapping(t_uint256,t_address)": {
        "encoding": "mapping",
        "key": "t_uint256",
        "label": "mapping(uint256 => address)",
        "numberOfBytes": "32",
        "value": "t_address"
      },
      "t_mapping(t_uint256,t_array(t_struct(Player)13532_storage)dyn_storage)": {
        "encoding": "mapping",
        "key": "t_uint256",
        "label": "mapping(uint256 => struct Raffle.Player[])",
        "numberOfBytes": "32",
        "value": "t_array(t_struct(Player)13532_storage)dyn_storage"
      },
      "t_mapping(t_uint256,t_bool)": {
        "encoding": "mapping",
        "key": "t_uint256",
        "label": "mapping(uint256 => bool)",
        "numberOfBytes": "32",
        "value": "t_bool"
      },
      "t_mapping(t_uint256,t_uint256)": {
        "encoding": "mapping",
        "key": "t_uint256",
        "label": "mapping(uint256 => uint256)",
        "numberOfBytes": "32",
        "value": "t_uint256"
      },
      "t_struct(Player)13532_storage": {
        "encoding": "inplace",
        "label": "struct Raffle.Player",
        "members": [
          {
            "astId": 13527,
            "contract": "contracts/Raffle.sol:Raffle",
            "label": "playerAddress",
            "offset": 0,
            "slot": "0",
            "type": "t_address"
          },
          {
            "astId": 13529,
            "contract": "contracts/Raffle.sol:Raffle",
            "label": "playerBet",
            "offset": 0,
            "slot": "1",
            "type": "t_uint256"
          },
          {
            "astId": 13531,
            "contract": "contracts/Raffle.sol:Raffle",
            "label": "prevDepSum",
            "offset": 0,
            "slot": "2",
            "type": "t_uint256"
          }
        ],
        "numberOfBytes": "96"
      },
      "t_uint256": {
        "encoding": "inplace",
        "label": "uint256",
        "numberOfBytes": "32"
      }
    }
  }
}